:100000000C9434000C9451000C9451000C94510049
:100010000C9451000C9451000C9451000C9440012C
:100020000C9451000C9451000C9451000C9451000C
:100030000C9451000C9451000C9451000C945100FC
:100040000C9451000C9451000C9451000C945100EC
:100050000C9451000C9451000C9451000C945100DC
:100060000C9451000C94510011241FBECFEFD8E026
:10007000DEBFCDBF11E0A0E0B1E0E8EDF9E002C0E5
:1000800005900D92A831B107D9F721E0A8E1B1E0C0
:1000900001C01D92A33EB207E1F70E943F030C94FA
:1000A000EA040C9400008AB183708AB98BB18C6F1A
:1000B0008BB987B18F7C87B988B1806388B908957F
:1000C0000F931F93CF93DF93009709F452C02091B1
:1000D0001A01222309F44DC0209119012F3109F48E
:1000E00048C08C01C0911901D0E00E942B03CC0FB5
:1000F000DD1FC556DE4F99838883809119018F5F7C
:100100008093190190E080911A01891790F1E92FED
:10011000F0E0EE0FFF1FE55EFE4F208131812017DA
:10012000310729F580911A01981790F4292F30E0B2
:10013000F901EE0FFF1FE35EFE4F40815181220F58
:10014000331FF901E55EFE4F518340839F5FEACF85
:10015000E0911A01F0E0EE0FFF1FE55EFE4F118205
:10016000108280911A01815080931A0102C09F5F12
:10017000CACFDF91CF911F910F91089520911A015D
:10018000203270F4E0911A01F0E0EE0FFF1FE55EFF
:10019000FE4F9183808380911A018F5F80931A01B3
:1001A00008950F931F93CF93DF9300D0CDB7DEB7A1
:1001B0008C014A8369830E946000D8011696ED91F4
:1001C000FC9117974A816981C8010995C8010F9070
:1001D0000F90DF91CF911F910F910C94BE000E9460
:1001E000700180E00E94FA000E942E010E945300DC
:1001F0000C94960297B121E030E0082E01C0220F46
:100200000A94EAF72095292327B997E890937A0072
:10021000806480937C0080917A00806480937A006F
:1002200080917A0086FDFCCF089590917C00907FAC
:1002300090937C0090917C008F70982B90937C0021
:1002400080917A00806480937A0080917A0086FDA4
:10025000FCCF809178009091790008951092B200BF
:1002600082E08093B00085E08093B1008DE78093B9
:10027000B300E0E7F0E080818260808378940895A5
:100280001F920F920FB60F9211248F939F93AF93EB
:10029000BF938091DB019091DC01A091DD01B091D1
:1002A000DE010196A11DB11D8093DB019093DC015D
:1002B000A093DD01B093DE01BF91AF919F918F912B
:1002C0000F900FBE0F901F901895F8946091DB016E
:1002D0007091DC018091DD019091DE0178940895A8
:1002E000E1ECF0E080818861808387E690E0909384
:1002F000C5008093C40008959091C00095FFFCCF85
:100300008093C60080E090E00895CF93DF93EC01E6
:100310008991882319F00E947C01FACFDF91CF9157
:1003200008951F93CF93DF93EC01FE011491812F69
:100330000E947C01112311F02196F7CFDF91CF911C
:100340001F910895CF93DF93CDB7DEB72A970FB6ED
:10035000F894DEBF0FBECDBF4AE0BE016F5F7F4F96
:100360000E94B504CE0101960E9485012A960FB61F
:10037000F894DEBF0FBECDBFDF91CF91089580917D
:10038000C00087FFFCCF8091C60008956111299AB3
:1003900027E030E090E02D98AC01022E02C0559588
:1003A00047950A94E2F740FF02C02B9A01C02B98B0
:1003B0002D9A2150310978F72998089560E089E84D
:1003C0000E94C60160E086EC0E94C60160E088EFF2
:1003D0000C94C601EF92FF920F931F93CF93DF937C
:1003E000E82EF62EC42FD22F60E084EF0E94C601C3
:1003F00060E08E2D0E94C60160E085EF0E94C6017C
:1004000060E08F2D0E94C60160E086EF0E94C60169
:1004100060E08E2D8C0F0E94C60160E087EF0E9485
:10042000C60160E08F2D8D0F0E94C60160E089EF4C
:100430000E94C6010115110549F4CD9FE001112468
:10044000D595C795D595C79510E01DC0C2E0F801B8
:10045000818190E001962C2F30E0821793074CF0B9
:10046000F801E20FF31F61E080810E94C601CF5FB7
:10047000EECF60E088EFDF91CF911F910F91FF9059
:10048000EF900C94C601812F90E0C817D9078CF328
:1004900061E080E00E94C6011F5FF5CF0F931F93BC
:1004A000CF93DF931F92CDB7DEB7182F062F60E0F2
:1004B0008F7049830E94C601812F82958F7060E002
:1004C000805F0E94C60160E080E6800F0E94C60146
:1004D00061E04981842F0F90DF91CF911F910F919F
:1004E0000C94C601CF93DF9360E080E00E94C601C8
:1004F00060E080E10E94C60160E080E60E94C601E3
:10050000C0E4D0E161E080E00E94C6012197D1F70C
:1005100060E080E00E94C60160E080E10E94C601C8
:1005200060E080E6DF91CF910C94C601CF93DF931A
:10053000259A239A249A219A209A2C9A29982D98C0
:10054000289A85E38A95F1F70000289860E081EF0A
:100550000E94C60160E087E60E94C60160E086EC6A
:100560000E94C60160E080E40E94C60160E080E570
:100570000E94C60160E08BE20E94C60160E08BEE43
:100580000E94C60160E081E80E94C60160E08FE53C
:100590000E94C60160E089E80E94C601C0E4D0E183
:1005A00061E080E00E94C6012197D1F760E080E021
:1005B0000E94C60160E080E10E94C60160E080E622
:1005C0000E94C60160E08FEADF91CF910C94C601D2
:1005D000FC01608341830895DC01FB018081129658
:1005E0008C931297818160810E947C0313968C9377
:1005F00013971596FC93EE9314970895CF92DF927C
:10060000FF920F931F93CF93DF931F92CDB7DEB767
:10061000F82E8A018AE090E069830E9488036C01C9
:10062000FC01F082698161838CEE92E09187808782
:10063000B801C6010E94EC0288EE92E0F6019783B1
:100640008683C6010F90DF91CF911F910F91FF908C
:10065000DF90CF900895CF93DF93EC0184E090E09A
:100660000E948803FC0188818083898181838A813B
:1006700082838B818383CF01DF91CF910895CF93C4
:10068000DF93CDB7DEB762970FB6F894DEBF0FBE2B
:10069000CDBF82E1E6E0F1E0DE01119601900D921E
:1006A0008A95E1F70E94EF000E94DE01AE014F5FE4
:1006B0005F4F60E085E00E94FE020E94BE000E9443
:1006C000650186B110921901F12C80911A01F8167A
:1006D000B0F7EF2DF0E0EE0FFF1FE55EFE4F01904B
:1006E000F081E02D04811581238142816181808127
:1006F0000E94EA01F394E9CF991B79E004C0991FA5
:10070000961708F0961B881F7A95C9F7809508956B
:10071000CF93DF938230910510F482E090E0E09176
:10072000E101F091E20120E030E0C0E0D0E030975C
:1007300011F14081518148175907C0F048175907F6
:1007400061F482819381209719F09B838A832BC067
:100750009093E2018093E10126C02115310519F043
:100760004217530718F49A01BE01DF01EF0102801E
:10077000F381E02DDCCF2115310509F1281B390B60
:100780002430310590F412968D919C911397611548
:10079000710521F0FB019383828304C09093E201F1
:1007A0008093E101FD01329644C0FD01E20FF31F89
:1007B00081939193225031092D933C933AC020911B
:1007C000DF013091E001232B41F4209102013091AF
:1007D00003013093E0012093DF012091000130916B
:1007E00001012115310541F42DB73EB740910401B7
:1007F00050910501241B350BE091DF01F091E001E0
:10080000E217F307A0F42E1B3F0B2817390778F0E7
:10081000AC014E5F5F4F2417350748F04E0F5F1F46
:100820005093E0014093DF018193919302C0E0E097
:10083000F0E0CF01DF91CF9108950F931F93CF93F5
:10084000DF93009709F48CC0FC0132971382128267
:100850000091E1011091E2010115110581F420815F
:100860003181820F931F2091DF013091E001281721
:10087000390779F5F093E001E093DF0171C0D80109
:1008800040E050E0AE17BF0750F412962D913C9116
:100890001397AD012115310509F1D901F3CF9D0160
:1008A000DA013383228360817181860F971F82175B
:1008B000930769F4EC0128813981260F371F2E5FD9
:1008C0003F4F318320838A819B8193838283452B91
:1008D00029F4F093E201E093E10142C01396FC9306
:1008E000EE931297ED01499159919E01240F351F06
:1008F000E217F30771F480819181840F951F0296AE
:1009000011969C938E938281938113969C938E93E0
:100910001297E0E0F0E0D80112968D919C91139728
:10092000009719F0F8018C01F6CF8D919C919801F8
:100930002E5F3F4F820F931F2091DF013091E00126
:100940002817390769F4309729F41092E2011092C0
:10095000E10102C0138212821093E0010093DF01D3
:10096000DF91CF911F910F910895BB274A3031F449
:10097000992322F4BDE2909581959F4F0C94C10478
:10098000BB27FB015527AA27880F991FAA1FA41769
:1009900010F0A41B83955051B9F7A05DAA3308F05D
:1009A000A95DA193009779F7B111B1931192CB0191
:1009B0000C94DA04DC01FC01672F71917723E1F7D5
:1009C000329704C07C916D9370836291AE17BF071C
:0809D000C8F30895F894FFCF6D
:1009D8000000E30120000410FFFFFFFFFFFFFFFFFF
:0809E800FFFFFFFFFFFFFFFF0F
:00000001FF
